:040000006F00A0638A
:100004000000000000000000080200000A020000D6
:10001400000000003806000000000000000000009E
:100024003806000038060000000000000000000050
:100034003806000000000000380600000000000040
:1000440038060000380600003806000038060000B4
:1000540038060000380600003806000038060000A4
:100064003806000038060000380600003806000094
:100074003806000038060000380600003806000084
:100084003806000038060000380600003806000074
:100094003806000038060000380600003806000064
:1000A4003806000038060000380600003806000054
:1000B4003806000038060000380600003806000044
:1000C4003806000038060000380600003806000034
:1000D4003806000038060000380600003806000024
:1000E4003806000038060000380600003806000014
:0C00F40038060000380600003806000046
:10010000397101436EC619A0397141536AC866CA74
:1001100062CC5ECE19A0397101535AD056D252D456
:100120004ED64AD826DA22DC06DE330161408282CE
:1001300041114AC026C222C406C68282B24D410184
:10014000024D924C224CB24B4101024B924A224A40
:10015000B2494101024992442244B24041018280A5
:100160003D432A876373C3029377F700BDEFADE584
:10017000937606FF3D8ABA960CC34CC30CC74CC796
:100180004107E36BD7FE11E28280B306C3408A06C3
:100190009702000096966780A6002307B700A30683
:1001A000B7002306B700A305B7002305B700A304D3
:1001B000B7002304B700A303B7002303B700A302CB
:1001C000B7002302B700A301B7002301B700A300C3
:1001D000B7002300B700828093F5F50F9396850052
:1001E000D58D93960501D58D61B79396270097021B
:1001F000000096968682E78086FA9680C1171D8F4A
:100200003E96E374C3F8A5B701A0B707EFBE37E782
:1002100000E0938707083CC701A0EFF27FF10111CE
:10022000AA84854537050400EF00007E85452145F9
:10023000EF00A07B930700407C8237140140E14728
:100240003EC64C008D47130504C03EC4552B856740
:10025000938707807C824C009147130504C03EC6FB
:1002600037540040712BB7070C000C0813050480AD
:100270003ECC26C802CA231E0100EF00C07A854585
:1002800013050480EF0070040561E9B5EFF25FEA41
:10029000B75400402A84938404808307040091E3C8
:1002A00055BD930500082685EF0010047DD905048F
:1002B0008305F4FF2685C205C181EF007002F1BFFE
:1002C000EFF21FE77971130600028145080802C2A8
:1002D00002C402C6713585451305C0203927316532
:1002E0002D2D371401408D444C0013050480648289
:1002F00002C63923C1473EC64C008D47130504C0D2
:100300003EC46482F529130504C08D45DD233724DE
:100310000140B7070E003ECE0C0885471305044088
:100320002302F10202C802CA02CC02D0512E1305E8
:1003300004408545CD268327444037070005130434
:100340000440D98F5CC0456131B5EFF27FDE3724C0
:100350000140AA858546130504400546CD261304B1
:100360000440C1475CDCA1477CC485452285652EDD
:10037000B724014089452285BD296DDD13850440E0
:100380008145552603A5C444938404404205418118
:10039000D1B3EFF27FD739713924EF0080757165E1
:1003A00013050520EF00E07A372500001305C5642A
:1003B000EF00B04FB707002083A5070837250000DE
:1003C00013050567EF00303D372500009305001940
:1003D00013050568EF00303C37250000130505695B
:1003E000EF00B04C372500001305056CEF00F04B13
:1003F000C13D05651305052CB7140140B729000060
:10040000372A0000193D814A938404C0B72C0000AC
:10041000372D000093890964130A8A640145353732
:100420002A8905451D37130BF0182A84933B0919B7
:10043000133C0519636E2B07854526855D29894583
:100440002685D12163688B00854526856D298945E0
:10045000268545215E87A2864A8693850C6EE287B3
:100460000A85EF0030450A8515356287DE862286CB
:10047000CA8513850C6EEF00103263890A02930758
:10048000F0184E8663F3270152869307F0184E87C3
:1004900063F387005287A286CA851305CD6FEF00EC
:1004A000902F814A1305401F952D8DBF854ADDBFD2
:1004B000E37CABF88D452685B92169BFB7170240AB
:1004C0009843B706FFF041111367170098C3D8434C
:1004D00037060200758FD8C39843B706F7FEFD169E
:1004E000758F98C39843B706FCFFFD16758F98C3A8
:1004F000D843B70601FFFD16758FD8C337079F0095
:1005000098C702C402C69843C166558F98C3B716F0
:10051000024005679C42F18F3EC6A24785073EC454
:10052000B24781E7A247E397E7FEB71702409C4333
:100530001397E7006357070685473EC6324785474E
:10054000631FF704B7170240D843B706C1FFFD1673
:10055000D8C3D843D8C3D84313670740D8C3D843B8
:10056000758FD8C3D843B7062900558FD8C3984391
:10057000B7060001558F98C3984393166700E3DDD3
:1005800006FED843B7160240719BD8C3D843136701
:100590002700D8C32147DC42B18BE39EE7FE41012F
:1005A000828002C661BFB7160240DC4237070020D6
:1005B0001146B18B130707086385C700214663887E
:1005C000C702B7177A00938707201CC3B7170240EA
:1005D000DC43918393F6F700B70700209387070069
:1005E000B69794231C43B3D7D7001CC38280DC4248
:1005F000D4424166C983BD8BF18E8907454663931A
:10060000C700C94781EEB746024083A60680C18A6B
:1006100089CEB7167A009386062021A8B716024025
:10062000D4421396E600E35606FEB7163D009386C5
:100630000690B387D70251BF01A097010020938194
:100640006124175100201301E19B172500001305B9
:100650006526970500209385E59A1386818163FAC4
:10066000C5008322050023A0550011059105E3EA8A
:10067000C5FE138581819385C1826377B5002320F0
:1006800005001105E36DB5FEFD42739002BC8D427D
:1006900073904280930280087390023097020000AA
:1006A0009382829693E2320073905230EFF01FE112
:1006B00097020000938222CE739012347300203090
:1006C0005C413707F1E01307F7EF944D7D8F9C41B4
:1006D000D58FD44DD58FD441A206D58FD98F5CC18B
:1006E0001C4537F7F1FF1307D77FD4457D8F9C4911
:1006F000D58F94458606D58FD98F1CC55C55370795
:1007000010FF7D177D8FDC29FD1793F7F70FD207B8
:10071000D98F5CD582801C4589C593E717001CC51D
:100720008280F99BEDBF1C4591C537075000D98FDA
:100730001CC582803707B0FF7D17F98FD5BFA5474D
:1007400063F7B7048D47138765FF3307F702032864
:10075000C5009D47B397E70093C7F7FFB3F70701BD
:10076000B396E600DD8E54C5994763E3C704954709
:100770007D163306F6025859FD47B397C70093C755
:10078000F7FFF98F3396C5005D8E50D982800D47F3
:100790003387E502032805019D47B397E70093C718
:1007A000F7FFB3F70701B396E600DD8E14C96DBFFE
:1007B000B14763E2C702954765163306F60218593A
:1007C000FD47B397C70093C7F7FFF98F3396C5006E
:1007D0005D8E10D9828095474D163306F602585526
:1007E000FD47B397C70093C7F7FFF98FB395C500CF
:1007F000DD8D4CD5828008416D8D3335A00082801F
:100800009C4513F7070113F8F70001C7D841336877
:10081000E80037270240145B3707000F758F4DEB58
:100820008546238CD180371701406315E5009A2156
:1008300035839AA18E2113F7F50F39C318418146EC
:10084000854E3D4F930F800293028004214E3396D4
:10085000DE00B3F8C5006311160393982600331326
:100860001F011343F3FF3377E300B318180133E795
:10087000E8006397F70750C98506E39AC6FD18C1DB
:100880001307F00F6375B70454412146854E3D4F61
:10089000930F800293028004414EB398CE0033F749
:1008A00015016392E8021317260001173313EF00B6
:1008B0001343F3FFB376D3003317E800D98E639563
:1008C000F703232A15010506E319C6FD54C18280EA
:1008D00037170140E310E5F603C7818121DF81BFAF
:1008E000E39C57F810C949BFE39F57FC2328150123
:1008F000D9BFB71701406316F50083C7818191C343
:10090000B5810CC98280B71701406316F50083C713
:10091000818191C3B5814CC98280B7160240DC4207
:1009200051777D17F98F5D8DC8C2828037170240DD
:100930005C439146B18B6385D700A1466382D7069D
:10094000B7177A00938707201CC1371602405C4214
:1009500037070020130707019183BD8BBA979423B3
:100960001C41B3D7D7005CC15442A1829D8ABA967C
:100970009422B3D6D70014C55442AD829D8A3697CF
:100980001823B3D7E7005CC5584239839376370004
:100990001387418036971823B3D7E7021CC982809A
:1009A0005C435843C166C983BD8B758F8907C546B3
:1009B0006393D700C94701EF3747024003270780F9
:1009C000418B09CF37177A001307072021A8371763
:1009D000024058439316E700E3D606FE37173D0062
:1009E00013070790B387E70285B799C53717024009
:1009F0001C4F5D8D08CF8280B7170240984F13457A
:100A0000F5FF798D88CF828099C5371702405C4FFA
:100A10005D8D48CF8280B7170240D84F1345F5FF50
:100A2000798DC8CF8280EFF2AFF01A29F577FD17E4
:100A3000F98FFA2101112A84D98F1EA99A25DE2166
:100A40005625AE84D98FBA25D98F7D771307379F66
:100A5000758FD98F5EA55E29DA25C207C18393F70A
:100A6000F7CFD98F5EA96800D135B747014093878A
:100A700007806316F404E2476545B335F5029040FC
:100A800081460A063305F502B52A93064006335718
:100A9000D502120793574700B387F6021D8D9317AF
:100AA0004500138527039307F06363FCA700130534
:100AB0000701420541810AA405616FF0AFE9D24701
:100AC00065BF3355D502598DEDB791C55E250967D0
:100AD000D98F5EA582805A25F977FD17F98FD5BF8A
:100AE00093F5F51F4EA182800A216D8D3335A0004C
:100AF0008280B707002083A7070837177A001307FB
:100B00000720B3D7E70293F7F70F238EF18013077F
:100B1000803EB387E702239DF1808280B7F700E033
:100B2000D8438146799BD8C303D7A1813306A70256
:100B300090CBD4CB98431367070198C398431367AE
:100B4000170298C3D843058B75DF9843799B98C3E8
:100B50008280EFF2EFDD2A841165011185451105D0
:100B60006935930700207C82371501408D473EC4CC
:100B70004C00E147130505803EC6593122C8374471
:100B80000140B70708000C08130504803ECC02CAD8
:100B9000231E0100493D8545130504803D3705614D
:100BA0006FF04FDBEFF22FD7B7440140AE893289A7
:100BB000014493840480634524014A856FF0EFD893
:100BC0009305000426850D3765DDB387890083858D
:100BD000070026850504C205C1811937E9BF1387BF
:100BE00081801C439386C1823E95636BD500B756C6
:100BF00000209386068063E5A60008C33E858280B8
:100C0000FD57EDBFB687B2882A832E88639B0614F2
:100C100063F8C50A4167636BE61AB70700016360B2
:100C2000F63493568601E147172700001307C7AE35
:100C300036971823BA97130700021D8F19CB3398E4
:100C4000E500B357F500B318E60033E807013313A6
:100C5000E50013D608013355C80293960801C182F6
:100C6000935703013377C802B385A602420733685E
:100C7000F700637AB80046989307F5FF636418019C
:100C80006365B8303E853308B8403357C802420325
:100C9000135303013378C802B386E602420833686F
:100CA0006800637BD80046989307F7FF63651801D7
:100CB00079176363D8003E874205598D814582804C
:100CC00001E60547B358C702416763E8E80EB70776
:100CD000000163EAF82893D68801E147172700004E
:100CE000130787A336971423BE9693070002958FA8
:100CF000FDE7939E08013387154113DF080193DE5A
:100D00000E018545935703013355E7033377E70316
:100D1000B306D5034207D98F63FAD700C6971307E6
:100D2000F5FF63E4170163E5D7263A85958F33D73E
:100D3000E703420313530301B3F7E703B30ED703EB
:100D4000C207B3E7670063FBD701C6979306F7FFB7
:100D500063E51701791763E3D70136874205598D9B
:100D6000828063E1D504C16763E1F604B70700013F
:100D700063E3F61E13D78601614897270000938727
:100D8000A799BA979823130E00024297330EEE40AC
:100D9000631A0E0C63EDB61C3335C5001345150000
:100DA000814582808145014582809307F00F63F37E
:100DB000D71C13D786002148C9B71307F00FC68682
:100DC000E37E17F193D68800A14709BF1307F00F00
:100DD000B286E37BC7E493568600A147B1B5B398CA
:100DE000F80033D6D50013DF0801335EE6033397EE
:100DF000F500B356D500558F939E080193DE0E0182
:100E00003313F50093550701B376E603B387CE039A
:100E1000C206CD8E63FBF600C6961306FEFF63E4A2
:100E2000161763F2F616791EC6969D8E33D6E60324
:100E300093170701C183B3F6E6033385CE021397F8
:100E400006015D8F637BA70046979307F6FF6368F3
:100E500017136376A7127916469793150E01098F1B
:100E6000D18D4DB5B357E600B396C601DD8E33D3B1
:100E7000E50013DF0601B357E303939E060193DEFB
:100E80000E013398C5013357E500336807019358C5
:100E900008013316C6013373E303B385FE02420330
:100EA000B368130163FBB800B6981387F7FF63EAD2
:100EB000D80C63F8B80CF917B698B388B84033D794
:100EC000E803420813580801B3F8E8033383EE023D
:100ED000C208B3E5080163FB6500B6951308F7FF88
:100EE00063EDD50863FB65087917B695C207416FB6
:100EF000D98F1307FFFFB3F6E70093D80701718F6F
:100F00004182B38EE602B3856540B386C60213D82C
:100F10000E013387E802BA96C2963386C80263F39D
:100F2000E6007A9693D80601469663E2C502638589
:100F3000C5003E858145828041677D17F98EC206D6
:100F4000B3FEEE003315C501F696E374D5FE1385A6
:100F5000F7FF8145828013D70601414839BD93567A
:100F60000601C147D1B193D60801C14785BB814570
:100F7000054582803687014809B5428785BF3E8690
:100F8000E9BDBA871DBF328E4DB579154698E5B9D2
:100F90007915C69761BB39713EDA2ED232D436D676
:100FA0003AD842DC46DE9387C18022CC804326CAF1
:100FB00006CEAA8409C41C4C99E3228581230C44E3
:100FC00054102686228536C6EF00904BF2406244CC
:100FD000D24421618280011126CA4AC806CE22CCA1
:100FE0004EC652C4AA842E8901C51C4D91E33923F3
:100FF0009C4C804499E32685112397270000938712
:10100000A783631BF402C0405E24A18BB1C71C48B8
:10101000A1C7FD59294A1C4483450900FD17B1E9C0
:101020001CC463DD07062286A9452685F920FD57E5
:101030006308F502294535A0972700009387C781EB
:101040006314F4008044C9B7971700009387C77CE6
:10105000E31CF4FAC0444DBFA2852685A92A55D9C0
:101060007D55F2406244D2444249B249224A056168
:1010700082801CC4050963D70700184C63CAE700C7
:10108000638845011C401387170018C08CA361B703
:10109000228626859D20E31035F9D9B71C40138799
:1010A000170018C0294798A371B79387C180AA85F4
:1010B000884315B735713ECBB707008093C7F7FF5C
:1010C0003ECE3EC8C1779387872032C536C73AC91E
:1010D00042CD46CF3ECA9387C1802AC42ACC8843DA
:1010E00034012E862C0086DE36C2EF00900CA2471B
:1010F00023800700F6500D618280011122CC26CAA0
:101100004AC806CE4EC6AA842E89328401C51C4D1B
:1011100091E3ED2697170000938707726317F40693
:10112000C0401C4C1CC45E24A18BC1C31C48B5CF5D
:101130001C4808409379F90F1379F90F1D8D5C480D
:101140006346F500A2852685692C25E51C44050526
:10115000FD171CC41C401387170018C023803701DB
:101160005C486388A7005E24858B81CBA947631602
:10117000F900A2852685B5240DEDF24062444A852A
:10118000D2444249B2490561828097170000938793
:10119000A76C6314F400804469B797170000938725
:1011A000A767E310F4F8C044ADBFA28526852120CF
:1011B00041D17D59D9B741119387C18026C284435B
:1011C00022C44AC006C62A892E8489C49C4C99E34D
:1011D00026852D269717000093870766631BF40268
:1011E000C0400317C40093170701C18393F687001B
:1011F000ADEA93F6070195EEA5472320F9001367A2
:1012000007045AA47D55B240224492440249410148
:10121000828097170000938727646314F40080444A
:10122000C9B7971700009387275FE31CF4FAC044FF
:101230004DBF918B9DC34C5889C993074404638467
:10124000F5004A853123232A04025E242322040068
:1012500093F7B7FD5EA41C481CC05E2493E787008B
:101260005EA41C4899EB5E241307002093F707281F
:101270006385E700A2854A85A1215E2413F7170044
:101280001DC35C4823240400B307F0401CCC1C4859
:101290000145B5FB8317C40013F707082DD793E763
:1012A00007045EA485B7898B014791E3584818C4A9
:1012B000F9BFDE25011122CC26CA06CE4AC84EC689
:1012C00013F78700AA842E8479EBD841634DE000A0
:1012D000B841634AE0000145F2406244D2444249C9
:1012E000B2490561828058547DD703A904009396C2
:1012F000370123A0040063DB060670485E24918B4F
:1013000099C75C401D8E5C5899C33C401D8E5C544F
:101310000C50814626858297FD575A24631DF5009F
:101320009440F54763E8D706B70740208507B3D751
:10133000D700858BA5C31C48232204001CC093172B
:10134000370163D80700FD576314F5009C4091E313
:1013500068C84C5823A02401BDDD9307440463846E
:10136000F5002685F526232A0402B5B70C50014660
:10137000854626850297FD572A86E311F5F89C409D
:10138000B5DF75476385E70059476393E70423A0FA
:10139000240191B7136707045AA47D5535BF83A96B
:1013A0000501E38A09F203A905008D8B23A035010D
:1013B00033093941014791E3D84918C4E35D20F16D
:1013C0001C540C50CA864E86268582976347A0001F
:1013D0005E2493E707045EA4C9B7AA993309A9401C
:1013E000F1BF9C49B9CF011122CC06CE2A8411C588
:1013F0001C4D81E72EC61922B2459717000093872E
:10140000A743639BF5004C408397C50095C7228591
:101410006244F240056171BD971700009387C7438E
:101420006394F5000C44CDB7971700009387C73E2F
:10143000E39CF5FC4C44C9BFF240624401450561A0
:10144000828001458280411122C406C62A844EA5AD
:1014500072A5232005002322050023240500232252
:10146000050623280500232A0500232C0500214614
:1014700081451305C505EFE0BFCE971700009387A0
:1014800027E65CD097170000938747E81CD497178E
:101490000000938727EC5CD497170000938787EEB2
:1014A00000D01CD8B2402244410182809705000040
:1014B000938565F3A9A2411126C213068006938481
:1014C000F5FFB384C4024AC02E8922C406C69385A0
:1014D00044071D262A8401CD23200500232225014F
:1014E000310508C4138684068145EFE07FC7228555
:1014F000B240224492440249410182801C4DADE336
:10150000411106C622C497070000938767FA1CD5CD
:10151000938701819C432324050423260504232863
:1015200005046314F50085471CCD2A841D2848C096
:101530002285052808C422852D2048C4484001463C
:101540009145113708440546A545F53D48440946EF
:10155000C945D53D85471CCCB2402244410182801B
:10156000828041119387018126C284434AC006C606
:101570009C4C22C42A8999E32685493793848404A4
:101580008044DC40FD1763D607009C40B9CF8440FF
:10159000C5BF0317C40039E7C177850723220406B6
:1015A0002320040023220400232404005CC42328F5
:1015B0000400232A0400232C04002146814513053E
:1015C000C405EFE0FFB9232A0402232C04022324DC
:1015D0000404232604042285B24022449244024992
:1015E000410182801304840671BF91454A85E1352B
:1015F00088C051FDB1472320F9000144E9BF79714A
:1016000022D44AD052CC56CA5AC85EC606D626D272
:101610004ECE2A8AAE8A130485040149054BFD5B30
:1016200009ECB25022544A8592540259F249624A56
:10163000D24A424BB24B4561828004448329440024
:10164000FD1963D409000040E1BFDE24637BFB0089
:101650008397E40063877701A6855285829A336970
:10166000A90093848406E9BF1971A6DAAE84839534
:10167000E500A2DC86DE328463DB0500DE2423A0E5
:10168000060093F7070885E7930700401DA0300880
:1016900036C6EF00B054B246E34205FE7247BD675E
:1016A000F98F7977BA9793B717009CC2F1BF930768
:1016B00000041CC0F6506654D6540145096182806E
:1016C000DE25011122CC06CE26CA4AC8898B2E847B
:1016D00089CF930774041CC01CC885475CC8F240BE
:1016E0006244D24442490561828074003000AA8479
:1016F000A53FA2452A892685012219E98317C4003E
:1017000013F7072069FFF19B93E727005EA4D1B789
:10171000970700009387C7D99CD45E2408C008C8E7
:1017200093E707085EA4A2475CC8B24781CF831540
:10173000E4002685EF00304D11C55E24F19B93E750
:1017400017005EA45E243369F9002316240141BF0B
:10175000DDC183A7C5FF411122C406C626C213847A
:10176000C5FF63D307003E94AA84EF0010609387FF
:1017700001829C4381EF2322040023A08182224422
:10178000B2402685924441016F00505E637EF400B2
:1017900014403307D4006396E7009843DC43369740
:1017A00018C05CC0D9BFBA87D84319C3E37DE4FE33
:1017B00094433386D700631F86001040B29694C3CB
:1017C0003386D700E31DC7FA10435843B29694C33B
:1017D000D8C375B76375C400B1479CC04DB71040FE
:1017E000B306C4006316D70014435843B29614C01E
:1017F00058C0C0C369B78280011126CA93843500DE
:10180000F19806CE22CC4AC84EC6A104B14763F572
:10181000F404B14463E4B4042A89EF0010559387BB
:10182000018298433A8429E4938741829C4399E753
:1018300081454A85EF00F02723A2A182A6854A852B
:10184000EF003027FD5963193507B1472320F90010
:101850004A85EF00B05129A0E3DE04FAB1471CC16C
:101860000145F2406244D2444249B2490561828056
:101870001C40858F63CF0702AD4663F6F6001CC09F
:101880003E9404C031A05C406313870223A0F18220
:101890004A85EF00B04D1305B400930744006199E9
:1018A0003307F5405DDF3A94898F1CC05DBF5CC390
:1018B000C5B72287404085BF130435007198E30205
:1018C00085FCB305A4404A85EF00B01EE31B35FB41
:1018D000ADBF01114AC803A9850022CC52C45AC029
:1018E00006CE26CA4EC656C22E84328B368A63E88E
:1018F0002609DE2513F7074849C304408C49584898
:10190000AA8AB389B4408D44B384E4020947B3C4BE
:10191000E402138716004E9763F3E400BA8493F74A
:101920000740B5CFA6855685C13D2A891DE1B1473F
:1019300023A0FA005E247D5593E707045EA4F240DD
:101940006244D2444249B249224A924A024B05615A
:1019500082800C484E86EF00D0315E2493F7F7B7B3
:1019600093E707085EA42328240144C84E99B38452
:1019700034412320240104C4528963732A0152890B
:1019800008404A86DA85EF00F0391C440145B387E8
:1019900027411CC41C403E99232024014DB72686B4
:1019A0005685EF00D03C2A895DFD0C4856854D33A5
:1019B000BDBFDE25717126D34AD14ECF06D722D5C1
:1019C00052CD56CB5AC95EC762C566C393F70708A6
:1019D000AA892E89B284B1C39C49A1E3930500046E
:1019E00036C6193D2320A9002328A900B24615E1D7
:1019F000B14723A0F9007D55BA502A549A540A5988
:101A0000FA496A4ADA4A4A4BBA4B2A4C9A4C4D6117
:101A1000828093070004232AF90093070002A30C95
:101A2000F1029307000302DA230DF10236CE930B85
:101A30005002971A0000938A2AE4054C294B268409
:101A40001C2099C363987709B30C9440638D0C00F4
:101A5000E6862686CA854E85AD3DFD57630BF51893
:101A6000D256E69636DA1C2063850718FD57930494
:101A7000140002D002D63ED202D4A301010682DCB9
:101A80008C2015465685EF00501D13841400825794
:101A900021E513F7070109C713070002A301E106B7
:101AA00013F7870009C71307B002A301E1069420CA
:101AB0001307A002638AE602B257268481462546B0
:101AC000182093051400130707FD6372E6068DC600
:101AD0003ED61DA00504ADB7330555413315AC0006
:101AE000C98F3ED0A28469BF72479306470018434E
:101AF00036CE634707023AD618209307E002631DEB
:101B0000F70418309307A002631BF702F247090499
:101B1000138747009C433ACE63C107023ED22DA8EB
:101B20003307E04093E727003AD63ED0F1B7B387BA
:101B3000670385462E84BA9761B7FD57C5B705047C
:101B400002D28146814725461820930514001307C9
:101B500007FD6376E606F9F20C200D461715000026
:101B6000130505D2EF00700F11CD97170000938772
:101B700027D11D8D93070004B397A70002550504D4
:101B80005D8D2AD00C20194617150000130585CF4E
:101B900093041400230CB102EF00300C25C597E725
:101BA000FFFF9387274695E70257F2471377071001
:101BB00009CF91073ECED257D2973EDA49B5B387C7
:101BC000670385462E84BA9741B79D07E19BA1071D
:101BD000D5B77808970600009386E6CF4A860C10A2
:101BE0004E8597000000E7000000FD572A8AE314A5
:101BF000F5FC8357C9007D5593F70704E39E07DE84
:101C00005255DDBB7808970600009386C6CC4A86FD
:101C10000C104E85FD2ED1BF1C46FD171CC663DA85
:101C20000700184E63C5E700A9476394F5006FF0FD
:101C3000CFCC1C422E851387170018C28CA382803C
:101C4000011122CC26CA4AC84EC652C406CE2A89E1
:101C5000AE893284B304D6007D5A631494000145E2
:101C600001A80C204E864A85453F0504E31745FF31
:101C7000F2406244D2444249B249224A056182801C
:101C8000357122CD26CB4AC94EC706CF52C556C3A1
:101C90005AC1DEDEE2DCE6DAAA89AE843289368415
:101CA00009C51C4D99E3EFF07F85971700009387D6
:101CB000A7B86397F40C83A44900DE24A18BFDC36D
:101CC0009C48EDC393070002A304F10293070003AD
:101CD00002D22305F10222C6930B5002971A00008C
:101CE000938A8AB9054C294B4A841C2099C3639E68
:101CF000770DB30C2441638D0C00E6864A86A685D9
:101D00004E853D3FFD57630FF51C9256E69636D241
:101D10001C206389071CFD571309140002C802CE5A
:101D20003ECA02CCA309010482D4834509001546AA
:101D30005685252713041900C24751E913F70701F7
:101D400009C713070002A309E10413F7870009C7B5
:101D50001307B002A309E104834609001307A00298
:101D6000638FE606F2474A8481462546182093058C
:101D70001400130707FD6377E60AB5CA3ECE85A8AF
:101D800097170000938747AD6395F40083A48900FB
:101D90002DB797170000938727A8E390F4F283A448
:101DA000C90021BFA6854E85EFF0EFC001DD7D554E
:101DB000FA406A44DA444A49BA492A4A9A4A0A4BDA
:101DC000F65B665CD65C0D618280050439BF330525
:101DD00055413315AC00C98F3EC82289B9B7324787
:101DE00093064700184336C6634707023ACE1820C9
:101DF0009307E002631DF70418309307A002631BEA
:101E0000F702B2470904138747009C433AC663C1EF
:101E100007023ECA2DA83307E04093E727003ACED9
:101E20003EC8F1B7B387670385462E84BA973DBF96
:101E3000FD57C5B7050402CA8146814725461820CB
:101E400093051400130707FD6374E606F9F20C20EE
:101E50000D46171500001305A5A2012511CD9717F2
:101E600000009387E7A11D8D93070004B397A70097
:101E7000424505045D8D2AC80C201946171500003F
:101E8000130545A0130914002304B102F92335C139
:101E900097E7FFFF9387071795E74247B247137706
:101EA000071009CF91073EC69257D2973ED22DBD5B
:101EB000B387670385462E84BA9751B79D07E19B88
:101EC000A107D5B77800970600009386A6D7268687
:101ED0000C084E8597000000E7000000FD572A8A95
:101EE000E314F5FCDE2493F70704E39207EC1255A4
:101EF000C1B57800970600009386C6D426860C08E4
:101F00004E85012AE1BF797156CA9C49BA8A984523
:101F100022D426D24ECE52CC06D64AD05AC85EC65D
:101F2000AA892E84B284368A63D3E700BA879CC01C
:101F30000347340419C385079CC01C4093F707026C
:101F400081C79C4089079CC003290400137969005C
:101F5000631A0900130B9401FD5B5C449840998F50
:101F6000634CF9041C408346340493F70702B336EC
:101F7000D000A5EB13063404D2854E85829AFD5716
:101F80006303F5041C4011469840998B54448144E6
:101F90006397C700B384E64063D3040081441C44C4
:101FA00018486354F700998FBE94014969047D5B1A
:101FB00063982405014509A885465A86D2854E8531
:101FC000829A631E75017D55B25022549254025973
:101FD000F249624AD24A424BB24B456182800509BE
:101FE000ADBF3307D40013060003A301C7040347A2
:101FF000540493871600A2978906A381E7049DBF26
:1020000085462286D2854E85829AE30E65FB0509B8
:1020100045B7797122D426D24AD04ECE06D652CCBC
:1020200056CA5AC8B689942D930790063289AA8455
:102030002E8413863504638DF60263E2D706930778
:1020400080056385F61863EDD700638D062093073E
:102050003004638EF60A930A24042301D404C9A031
:10206000930730066385F60A93074006E395F6FE6C
:102070001C40084393F6070893054500C5C61C415C
:102080000CC363D807001307D002B307F040A301C5
:10209000E404970600009386667F294765A89307A6
:1020A00000076381F61663E5D7029307E0066388AD
:1020B000F6189307F006E390F6FA0C401C4313F869
:1020C0000508138547006307080608C39C4385A8D5
:1020D00093075007E383F6FE930780076388F612A1
:1020E00093073007E399F6F61C43D0418145938668
:1020F000470014C383AA07005685852601C533050A
:10210000554148C05C401CC8A301040461A81C439D
:10211000930A2404938647009C4314C32301F404C8
:102120008547D5B793F607041C410CC3B9DAC2073B
:10213000C18781BF93F5050408C3C9D99E2313073E
:10214000F0066386E60E97060000938626742947FC
:10215000A30104044C400CC463C5050008406D99FC
:1021600008C099E3B28A89CDB28AB3F5E702FD1AB5
:10217000B6958C212380BA00B3D5E70263FFE70A46
:10218000A147631EF7001C40858B91CB58401C482B
:1021900063C7E70093070003A38FFAFEFD1A330617
:1021A000564110C84E87CA867000A2852685A13B7D
:1021B0007D5A631D450B7D55B250225492540259ED
:1021C000F249624AD24A424B45618280A382D504D9
:1021D000970600009386866B0C40084313F80508A9
:1021E0001C411105630D080208C313F7150001C750
:1021F00093E505020CC04147A1FF0C4093F5F5FDA6
:102200000CC0B9B79C4193E707029CC193078007B4
:10221000A302F404970600009386866875BF13F83E
:10222000050408C3E30308FCC207C1837DBF97060A
:1022300000009386A665214721BFAE873DB7944134
:102240001C43CC4913F806081385470063060800B1
:1022500008C39C438CC339A008C393F606049C436F
:10226000F5DA8EA323280400B28A2DBF14485686BF
:10227000CA8526858299E30045F51C40898B8DE748
:10228000B2474844E35AF5F23E853DB78546568647
:10229000CA8526858299E30065F3050A5C443247C6
:1022A000998FE345FAFEE9BF014A930A94017D5BE9
:1022B000F5B7411122C42A842E8523A4018206C6C3
:1022C000EFE0FF91FD576317F500938781829C43F0
:1022D00091C31CC0B240224441018280411122C4FA
:1022E0002E848395E50006C6F12C634905007C48E1
:1022F000AA977CC8B2402244410182805E247D7747
:102300007D17F98F5EA4FDB7DE25011122CC26CA08
:102310004AC84EC606CE93F70710AA842E84328987
:10232000B68991C78395E5008946014609225E2456
:102330007D777D17F98F5EA48315E4006244F24037
:10234000CE864A86B24942492685D244056125A8EF
:10235000411122C42E848395E50006C6C928FD5785
:102360005A24631AF500FD77FD17F98F5EA4B24079
:102370002244410182808567D98F5EA468C8C5BFA9
:102380008395E50005A8411122C42A842E85B285D3
:10239000368623A4018206C6EFE0DF80FD5763176F
:1023A000F500938781829C4391C31CC0B2402244B4
:1023B00041018280411122C42A842E8523A40182F6
:1023C00006C68924FD576317F500938781829C43D5
:1023D00091C31CC0B240224441018280411122C4F9
:1023E0002A842E85B28523A4018206C61524FD57B2
:1023F0006317F500938781829C4391C31CC0B24050
:10240000224441018280411122C42A842E8523A4C2
:10241000018206C62124FD576317F5009387818248
:102420009C4391C31CC0B2402244410182804111AF
:1024300022C42A842E85B285368623A4018206C64C
:10244000E522FD576317F500938781829C4391C372
:102450001CC0B24022444101828093F5F50F2A96B8
:102460006314C500014582801C21E38EB7FE05057B
:10247000C5BFB3C7A5008D8B3307C50081E78D4766
:1024800063EDC700AA87637EE5089421850785056B
:10249000A38FD7FEE3EBE7FE828093763500AA8711
:1024A00089CA942185078505A38FD7FE93F6370047
:1024B000C5BF9376C7FF138606FE63F0C70683A3E6
:1024C000050083A2450083AF850003AFC50083AE3E
:1024D000050103AE450103A3850183A8C5019385CA
:1024E000450223A0770003A8C5FF23A2570023A419
:1024F000F70123A6E70123A8D70123AAC70123AC2C
:10250000670023AE17019387470223AE07FF75B715
:1025100090419107910523AEC7FEE3EBD7FEE3E6BA
:10252000E7F6828063F1A504B386C500637DD5021A
:102530009345F6FF8147FD176393F500828033874B
:10254000F600034807003387C7002A9723000701D6
:10255000DDB73387F50014233307F500850714A38F
:10256000E319F6FE82808147E5BF8280828081E5A3
:10257000B2856FF06FA8011122CC06CE26CA4AC8D8
:102580004EC6328401EEEFF0AF9C0149F240624446
:102590004A85D2444249B24905618280AE84AA8903
:1025A00081282689E37485FEA2854E85EFF0CFA4AD
:1025B0002A8969DDA68522866D3DA6854E85EFF0C8
:1025C0002F99E9B7411122C42A842E85B285368617
:1025D00023A4018206C6B928FD576317F500938727
:1025E00081829C4391C31CC0B2402244410182803D
:1025F00083A7C5FF1385C7FF63D50700AA959C4134
:102600003E9582809307800523A4F1827D558280C8
:102610009307800523A4F1827D558280930780056E
:1026200023A4F182014582809307800523A4F182CF
:102630007D5582809307800523A4F1827D55828099
:10264000505245535345440072656C000D0A3D3DA0
:102650003D3D3D2043483332583230334320546FA0
:102660007563684B6579203D3D3D3D3D0D000000A3
:1026700053797374656D436C6B3A25640D0A0000E1
:102680005468726573686F6C643A25640D0A0000C3
:10269000555341525433283438303029202D3E20B0
:1026A0004553502D3031532028504231302D3E5269
:1026B000582C20504231312D3E5458290D00000035
:1026C0003D3D3D3D3D3D3D3D3D3D3D3D3D3D3D3D3A
:1026D0003D3D3D3D3D3D3D3D3D3D3D3D3D3D0D0097
:1026E00056313A25642C56323A25642C53313A251A
:1026F000642C53323A25640D0A000000544B313AE1
:1027000025642825732920544B323A2564282573E3
:10271000290D0A0000010202030303030404040458
:10272000040404040505050505050505050505055D
:10273000050505050606060606060606060606063D
:102740000606060606060606060606060606060629
:10275000060606060707070707070707070707070D
:1027600007070707070707070707070707070707F9
:1027700007070707070707070707070707070707E9
:1027800007070707070707070707070707070707D9
:1027900007070707080808080808080808080808BD
:1027A00008080808080808080808080808080808A9
:1027B0000808080808080808080808080808080899
:1027C0000808080808080808080808080808080889
:1027D0000808080808080808080808080808080879
:1027E0000808080808080808080808080808080869
:1027F0000808080808080808080808080808080859
:102800000808080808080808080808080808080848
:102810000808080800000000000000000000000098
:1028200000000000000000000000000000000000A8
:102830000000000000000000000000000000000098
:102840000000000000000000000000000000000088
:102850000000000000000000000000000000000078
:102860000000000000000000000000000000000068
:1028700000000000232D302B20000000686C4C006D
:1028800065666745464700003031323334353637A8
:10289000383941424344454600000000303132336C
:1028A000343536373839616263646566000000008C
:1028B00000000000000000000102030406070809F0
:1028C00000000000010203040102030406070809D6
:1028D00000000000342800005428000014280000E4
:1028E00000000000000000000000000000000000E8
:1028F00000000000000000000000000000000000D8
:1029000000000000000000000000000000000000C7
:1029100000000000000000000000000000000000B7
:1029200000000000000000000000000000000000A7
:1029300000D8B80502040608AC00002020000020E2
:0829400020000020000000004F
:00000001FF
